:100000000C9438000C9455000C9455000C94550039
:100010000C9455000C9455000C9409020C94550056
:100020000C9455000C9455000C9455000C945500FC
:100030000C9455000C9455000C9455000C945500EC
:100040000C9455000C9455000C9455000C945500DC
:100050000C9455000C9455000C9455000C945500CC
:100060000C9455000C9455000C9455000C945500BC
:1000700011241FBECFEFD0E1DEBFCDBF11E0A0E065
:10008000B1E0EAE4F7E002C005900D92AC30B107B0
:10009000D9F721E0ACE0B1E001C01D92A532B20772
:1000A000E1F70E9439030C94A3030C94000084B17F
:1000B000806B84B98CB583658CBD08958EBD0DB4FD
:1000C00007FEFDCF0895CF93DF93D82FC62F2C982E
:1000D00080E00E945E0080E00E945E0080E00E945E
:1000E0005E0080E00E945E008D2F0E945E008C2FDB
:1000F0000E945E002C9ADF91CF910895CF93DF93F9
:10010000D82FC62F2C9880E00E945E0080E00E94CD
:100110005E008D2F0E945E008C2F0E945E0080E0AA
:100120000E945E0080E00E945E002C9ADF91CF91D9
:100130000895CF93C62F2C980E945E008C2F0E94AA
:100140005E0080E00E945E0080E00E945E0080E031
:100150000E945E0080E00E945E002C9ACF9108957C
:10016000CF936FEF89E00E94630065E08BE00E940F
:1001700063006FE08AE00E94630061E08CE00E940F
:100180006300C1E068E08C2F0E9463002FE78AE1E2
:1001900096E0215080409040E1F700C000006FE001
:1001A0008C2F0E946300CF5FC73061F7CF91089515
:1001B000CF936FEF89E00E947E0065E08BE00E94A4
:1001C0007E006FE08AE00E947E0061E08CE00E9489
:1001D0007E00C1E068E08C2F0E947E002FE78AE15C
:1001E00096E0215080409040E1F700C000006FE0B1
:1001F0008C2F0E947E00CF5FC73061F7CF910895AA
:10020000CF936FEF89E00E94990065E08BE00E9438
:1002100099006FE08AE00E94990061E08CE00E9402
:100220009900C1E068E08C2F0E9499002FE78AE1D5
:1002300096E0215080409040E1F700C000006FE060
:100240008C2F0E949900CF5FC73061F7CF9108953E
:100250008F929F92AF92BF92CF92DF92EF92FF92D6
:100260000F931F93CF93DF93CDB7DEB768970FB689
:10027000F894DEBF0FBECDBF182F6A017B01CB0102
:10028000BA0120EA36E841E050E00E946703298382
:100290003A834B835C8360EA76E881E090E00E94D9
:1002A0005703C61AD70AE80AF90AC701B60120E1BE
:1002B00037E240E050E00E9467032D833E834F8386
:1002C0005887A0E1B7E20E948903C61AD70AE80A54
:1002D000F90AC701B60128EE33E040E050E00E9481
:1002E000670349015A01A8EEB3E00E948903C61AC8
:1002F000D70AE80AF90AC701B60124E630E040E06F
:1003000050E00E9467032D873E874F87588BA4E6F5
:10031000B0E00E948903C61AD70AE80AF90AC701A1
:10032000B6012AE030E040E050E00E946703298BEC
:100330003A8B4B8B5C8BAAE0B0E00E948903C61A13
:10034000D70AE80AF90ACD8ADE8AEF8AF88E80E8B1
:10035000880E911CA11CB11C89869A86AB86BC862E
:10036000FE0131967F0101E0DD24D3948FE0882ED9
:10037000912CA12CB12CF70180819181A281B381B4
:10038000892B8A2B8B2B81F1D12C113079F040F005
:10039000123089F4F7016081802F0E9499000BC010
:1003A000F7016081802F0E94630005C0F701608122
:1003B000802F0E947E00F4E0EF0EF11C0F5F0730EB
:1003C000D1F668960FB6F894DEBF0FBECDBFDF91B1
:1003D000CF911F910F91FF90EF90DF90CF90BF9042
:1003E000AF909F908F90089581E0D812CDCFF70104
:1003F00080829182A282B382C8CFEDE6F0E0808154
:100400008C6F8083E8E6F0E0808184608083DA9AF4
:1004100008951F920F920FB60F9211242F938F936E
:100420009F93AF93BF93359B10920C01369933C0C5
:1004300081E080930C018091080190910901A091C5
:100440000A01B0910B018093150190931601A093BE
:100450001701B09318018091040190910501A091BA
:100460000601B09107018093110190931201A093AE
:100470001301B09314018091000190910101A091AA
:100480000201B091030180930D0190930E01A0939E
:100490000F01B0931001349913C08091080190911D
:1004A0000901A0910A01B0910B0180932101909361
:1004B0002201A0932301B093240181E080930C01D9
:1004C000339913C08091040190910501A091060118
:1004D000B091070180931D0190931E01A0931F010D
:1004E000B093200181E080930C01329913C0809178
:1004F000000190910101A0910201B091030180934C
:10050000190190931A01A0931B01B0931C0181E083
:1005100080930C012FE38DE093E0215080409040C8
:10052000E1F700C00000BF91AF919F918F912F9193
:100530000F900FBE0F901F90189580910801909119
:100540000901A0910A01B0910B0140912101509144
:1005500022016091230170912401841B950BA60B4D
:10056000B70B8093150190931601A0931701B093D8
:1005700018018091040190910501A0910601B091AC
:10058000070140911D0150911E0160911F01709162
:100590002001841B950BA60BB70B80931101909340
:1005A0001201A0931301B093140180910001909166
:1005B0000101A0910201B0910301409119015091F4
:1005C0001A0160911B0170911C01841B950BA60BF5
:1005D000B70B80930D0190930E01A0930F01B09380
:1005E00010010895882319F0813001F10895409198
:1005F00008015091090160910A0170910B0180E09E
:100600000E9428014091040150910501609106016A
:100610007091070181E00E942801409100015091F2
:100620000101609102017091030120C00E949D02AE
:1006300040911501509116016091170170911801B8
:1006400080E00E94280140911101509112016091B7
:1006500013017091140181E00E94280140910D0165
:1006600050910E0160910F017091100182E00C9485
:10067000280187B1836087B98FEF88B90E9457003E
:100680000E94FD010E94B0000E94D8000E9400015B
:10069000789480910C010E94F2022FE78AE196E0A3
:1006A000215080409040E1F700C00000F2CFDB0114
:1006B0008F939F930E948903BF91AF91A29F800D5A
:1006C000911DA39F900DB29F900D11240895A1E25A
:1006D0001A2EAA1BBB1BFD010DC0AA1FBB1FEE1FBC
:1006E000FF1FA217B307E407F50720F0A21BB30B07
:1006F000E40BF50B661F771F881F991F1A9469F783
:1007000060957095809590959B01AC01BD01CF01DE
:1007100008950E949403A59F900DB49F900DA49FEF
:10072000800D911D11240895A29FB001B39FC001B7
:10073000A39F700D811D1124911DB29F700D811D0D
:0A0740001124911D0895F894FFCFD5
:0C074A00B004000020A1070028AF0A0046
:00000001FF
