S01F0000506F736974696F6E696E6753797374656D4472697665722E7372656381
S11300000C9438000C944A000C944A000C944A0056
S11300100C944A000C944A000C9442020C944A003A
S11300200C944A000C944A000C944A000C944A0024
S11300300C944A000C944A000C944A000C944A0014
S11300400C944A000C944A000C944A000C944A0004
S11300500C944A000C944A000C944A000C944A00F4
S11300600C944A000C944A000C944A000C944A00E4
S113007011241FBECFEFD0E1DEBFCDBF21E0A0E051
S1130080B1E001C01D92A030B207E1F70E941C024A
S11300900C94A1020C94000084B1806B84B98CB5DB
S11300A083658CBD08958EBD0DB407FEFDCF089504
S11300B0CF93DF93D82FC62F2C9880E00E94530053
S11300C080E00E94530080E00E94530080E00E9480
S11300D053008D2F0E9453008C2F0E9453002C9AA2
S11300E0DF91CF910895CF93DF93D82FC62F2C980B
S11300F080E00E94530080E00E9453008D2F0E94F4
S113010053008C2F0E94530080E00E94530080E033
S11301100E9453002C9ADF91CF910895CF93C62F5C
S11301202C980E9453008C2F0E94530080E00E9460
S1130130530080E00E94530080E00E94530080E05E
S11301400E9453002C9ACF910895CF936FEF89E0CA
S11301500E94580065E08BE00E9458006FE08AE03E
S11301600E94580061E08CE00E945800C1E068E001
S11301708C2F0E9458002FE78AE196E0215080409E
S11301809040E1F700C000006FE08C2F0E945800FF
S1130190CF5FC73061F7CF910895CF936FEF89E0B8
S11301A00E94730065E08BE00E9473006FE08AE0B8
S11301B00E94730061E08CE00E947300C1E068E07B
S11301C08C2F0E9473002FE78AE196E02150804033
S11301D09040E1F700C000006FE08C2F0E94730094
S11301E0CF5FC73061F7CF910895CF936FEF89E068
S11301F00E948E0065E08BE00E948E006FE08AE032
S11302000E948E0061E08CE00E948E00C1E068E0F4
S11302108C2F0E948E002FE78AE196E021508040C7
S11302209040E1F700C000006FE08C2F0E948E0028
S1130230CF5FC73061F7CF9108954F925F926F926D
S11302407F92BF92CF92DF92EF92FF920F931F9310
S1130250CF93DF93CDB7DEB768970FB6F894DEBFC0
S11302600FBECDBFB82E6A017B01CB01BA0120EAD3
S113027036E841E050E00E94650229833A834B83CB
S11302805C8360EA76E881E090E00E945502C61A39
S1130290D70AE80AF90AC701B60120E137E240E0CB
S11302A050E00E9465022D833E834F835887A0E16E
S11302B0B7E20E948702C61AD70AE80AF90AC701F8
S11302C0B60128EE33E040E050E00E9465022901C7
S11302D03A01A8EEB3E00E948702C61AD70AE80AD8
S11302E0F90AC701B60124E630E040E050E00E947C
S11302F065022D873E874F87588BA4E6B0E00E94A5
S11303008702C61AD70AE80AF90AC701B6012AE021
S113031030E040E050E00E946502298B3A8B4B8B21
S11303205C8BBA01A901440F551F661F771FDB01BF
S1130330CA01880F991FAA1FBB1F880F991FAA1FE4
S1130340BB1F840F951FA61FB71FC81AD90AEA0A34
S1130350FB0ACD8ADE8AEF8AF88E80E8480E511CAB
S1130360611C711C49865A866B867C868E010F5FE0
S11303701F4FFF24F394EE24E3940F2EFFE04F2E3F
S1130380512C612C712CF02DD12C9801F801808115
S11303909181A281B381892B8A2B8B2B39F428C0BC
S11303A0F901408251826282738201C0ED2CF1E036
S11303B0BF1661F0BF1620F082E0B81669F011C0D4
S11303C0F90160818F2D0E9458000BC0F9016081F2
S11303D08F2D0E94730005C0F90160818F2D0E944A
S11303E08E000C5F1F4FF394F7E0FF12CECF04C0D2
S11303F081E0E812DCCFD4CF68960FB6F894DEBF64
S11304000FBECDBFDF91CF911F910F91FF90EF9061
S1130410DF90CF90BF907F906F905F904F90089542
S1130420EDE6F0E080818C6F8083E8E6F0E0808187
S113043084608083DA9A089587B1836087B98FEFE7
S113044088B90E944C000E9410020E94A5000E94DC
S1130450CD000E94F500789448B150E060E070E06F
S113046080E00E941D0146B150E060E070E081E050
S11304700E941D0147B150E060E070E082E00E94FC
S11304801D01EACF1F920F920FB60F9211248F9382
S11304909F9398B181E0892788B9DA9A9F918F91C7
S11304A00F900FBE0F901F901895DB018F939F93B1
S11304B00E948702BF91AF91A29F800D911DA39FBF
S11304C0900DB29F900D11240895A1E21A2EAA1B3B
S11304D0BB1BFD010DC0AA1FBB1FEE1FFF1FA217F0
S11304E0B307E407F50720F0A21BB30BE40BF50BED
S11304F0661F771F881F991F1A9469F76095709576
S1130500809590959B01AC01BD01CF0108950E9497
S11305109202A59F900DB49F900DA49F800D911DF4
S113052011240895A29FB001B39FC001A39F700D31
S1130530811D1124911DB29F700D811D1124911DE7
S10905400895F894FFCFBA
S9030000FC
